:100000000C942A001895000018950000189500001F
:10001000189500001895000018950000189500002C
:10002000189500001895000018950000189500001C
:10003000189500001895000018950000189500000C
:1000400018950000189500001895000018950000FC
:10005000189500008FE58DBFC8E3E0E24E2E84E0E6
:100060008EBFD4E0F4E05F2EA89584B7082E877F7A
:1000700084BF88E1992781BD91BDEEEFF3E0A0E652
:10008000B0E088278D933197E9F766248D9A81EC4B
:100090008FBD85E08EBD8FEF8ABB87E087BB889AD6
:1000A000899A8D9AA09AA19A789484E690E0A0E625
:1000B000B0E08D939C93709162007F7770936200A3
:1000C000709162007F7B70936200B49B0C9473000C
:1000D00070916200706870936200909A9198A898ED
:1000E000A99AB499FECFB59B0C94810070916200DF
:1000F0007F77709362009098919AA89AA998B59981
:10010000FECFB39B0C94C000A2E6B0E08C9186FBBE
:10011000882780F9809580FBA2E6B0E08C9186F973
:100120008C93A2E6B0E08C9186FB16F40C94A300AD
:10013000A2E6B0E08C9187FB16F40C94A300909893
:10014000919AA89AA998A2E6B0E08C9186FB16F441
:100150000C94B500A2E6B0E08C9187FB16F00C94ED
:10016000B500909A9198A898A99AA2E6B0E08C91CF
:1001700086FB16F00C94BE0090989198B399FECF30
:10018000B69B0C94D900A0E6B0E00D911C910A3FFB
:1001900050E0150710F00C94D700A0E6B0E00D91E8
:1001A0001C91065F1F4FA0E6B0E00D931C93B6991B
:1001B000FECFB79B0C94F500A0E6B0E00D911C912A
:1001C0000A3050E0150718F011F00C94E9000C9477
:1001D000F300A0E6B0E00D911C910A501040A0E69B
:1001E000B0E00D931C93B799FECFA0E6B0E08D91DF
:1001F0009C919BBD8ABDA0E6B0E0BA93AA930E94F1
:10020000060122960C946500F894FFCFA881B9816D
:100210000D911C91093150E0150710F00C94140158
:10022000C19AC09870E07BBBA881B9810D911C91E7
:10023000023350E0150781E008F080E08F93A88139
:10024000B9810D911C91093150E0150781E008F446
:1002500080E09F918923882311F40C943301C19A83
:10026000C09A70E07BBBA881B9810D911C910B34C1
:1002700050E0150781E008F080E08F93A881B981F4
:100280000D911C91023350E0150781E008F480E0E5
:100290009F918923882311F40C945201C19AC09A2A
:1002A00070E87BBBA881B9810D911C91043650E0A8
:1002B000150781E008F080E08F93A881B9810D9146
:1002C0001C910B3450E0150781E008F480E09F9109
:1002D0008923882311F40C947101C19AC09A70EC9F
:1002E0007BBBA881B9810D911C910D3750E015079A
:1002F00081E008F080E08F93A881B9810D911C9175
:10030000043650E0150781E008F480E09F918923CE
:10031000882311F40C949001C19AC09A70EE7BBBB3
:10032000A881B9810D911C91063950E0150781E033
:1003300008F080E08F93A881B9810D911C910D3751
:1003400050E0150781E008F480E09F91892388231D
:1003500011F40C94AF01C19AC09A70EF7BBBA881D5
:10036000B9810D911C910F3A50E0150781E008F01A
:1003700080E08F93A881B9810D911C91063950E0DE
:10038000150781E008F480E09F918923882311F408
:100390000C94CE01C19AC09A78EF7BBBA881B98139
:1003A0000D911C91083C50E0150781E008F080E0B9
:1003B0008F93A881B9810D911C910F3A50E01507D8
:1003C00081E008F480E09F918923882311F40C9444
:1003D000ED01C19AC09A7CEF7BBBA881B9810D91D8
:1003E0001C91013E50E0150781E008F080E08F93FA
:1003F000A881B9810D911C91083C50E0150781E05E
:1004000008F480E09F918923882311F40C940C0256
:10041000C19AC09A7EEF7BBBA881B9810D911C91D6
:100420000F3F50E0150781E008F080E08F93A8812E
:10043000B9810D911C91013E50E0150781E008F44F
:1004400080E09F918923882311F40C942B02C19A98
:10045000C09A7FEF7BBB08953197F1F708956894B8
:0A04600062F80895E89462F8089528
:00000001FF
